:10000000D4010020410B0000AD0B0000B50B000037
:10001000BD0B0000BD0B0000BD0B00000000000088
:10002000000000000000000000000000BD0B000008
:10003000BD0B000000000000BD0B0000BD0B000068
:10004000BD0B0000BD0B0000BD0B0000BD0B000090
:10005000BD0B0000BD0B0000BD0B0000BD0B000080
:10006000BD0B0000BD0B0000BD0B0000BD0B000070
:10007000BD0B0000BD0B0000BD0B0000BD0B000060
:10008000BD0B0000BD0B0000BD0B0000BD0B000050
:10009000BD0B0000BD0B0000BD0B0000BD0B000040
:1000A000BD0B0000BD0B0000BD0B0000BD0B000030
:1000B000BD0B0000BD0B0000BD0B0000BD0B000020
:1000C000BD0B0000BD0B0000BD0B0000BD0B000010
:1000D000BD0B0000BD0B0000BD0B0000BD0B000000
:1000E000BD0B00000000000000000000BD0B000080
:1000F000BD0B0000BD0B0000BD0B0000BD0B0000E0
:10010000BD0B0000BD0B0000BD0B0000BD0B0000CF
:100110000000000000000000BD0B0000BD0B00004F
:10012000BD0B0000BD0B0000BD0B0000BD0B0000AF
:10013000BD0B0000BD0B0000BD0B0000BD0B00009F
:1001400000000000000000000000000000000000AF
:10015000BD0B0000BD0B0000BD0B0000BD0B00007F
:10016000000000000000000000000000000000008F
:10017000000000000000000000000000000000007F
:10018000000000000000000000000000000000006F
:10019000000000000000000000000000000000005F
:1001A000000000000000000000000000000000004F
:1001B000BD0B0000BD0B0000BD0B0000BD0B00001F
:1001C000BD0B0000BD0B0000BD0B0000BD0B00000F
:1001D000BD0B0000BD0B0000BD0B0000BD0B0000FF
:1001E000BD0B0000BD0B0000BD0B000000000000B7
:1001F00000000000BD0B0000BD0B0000BD0B0000A7
:10020000BD0B0000BD0B000000000000000000005E
:10021000BD0B0000BD0B0000BD0B0000BD0B0000BE
:10022000BD0B0000BD0B0000BD0B0000BD0B0000AE
:10023000BD0B0000BD0B0000BD0B0000BD0B00009E
:10024000BD0B0000BD0B0000BD0B0000BD0B00008E
:10025000BD0B0000BD0B0000BD0B0000BD0B00007E
:10026000BD0B0000BD0B0000BD0B000080B483B0CF
:1002700000AF2F4A2E4B1B6843F0010313602C4B39
:100280001B687B602B4A2B4B1B6823F0E003136039
:10029000294A294B1B68C3F313031360274A274BD2
:1002A0001B6843F0E0031360254A254B1B6823F0CD
:1002B000E0031360234A234B1B6843F0E003136001
:1002C000214A214B1B6843F0E0031360184A184B86
:1002D0001B6843F002031360154B1B687B601B4ACD
:1002E0001A4B1B6823F0FF031360194B1B68184B54
:1002F00000221A60174A174B1B6843F0FF03136074
:10030000154A154B1B6823F0FF031360134A134B68
:100310001B6843F0FF031360114A114B1B6843F045
:10032000FF03136000BF0C37BD465DF8047B7047C8
:1003300008E10F40284500402C45004000440040A3
:10034000204400401C45004008450040285500401E
:100350002C55004000540040205400401C550040E3
:100360000855004080B582B000AF0346FB71124AC9
:10037000114B1B6823F0E0031360104AFB791360F4
:100380000D4A0D4B1B6843F0800313600A4A0A4B69
:100390001B6823F060031360132000F00FF9064A76
:1003A000054B1B6823F0E0031360012000F03AF9CD
:1003B00000BF0837BD4680BDFC430040FC530040F1
:1003C00080B582B000AF0346FB710F4AFB79136022
:1003D0000E4A0E4B1B6843F0C00313600B4A0B4BD5
:1003E0001B6823F020031360132000F0E7F8074A8E
:1003F000064B1B6823F0E0031360012000F012F9A4
:1004000000BF0837BD4680BDFC530040FC430040A0
:1004100080B500AFFFF72AFF0F2000F003F9382066
:10042000FFF7A0FF052000F0FDF83820FFF79AFF46
:10043000962000F0E1F80C20FFF794FF0120FFF771
:1004400091FF0620FFF78EFF322000F0EBF800BF8F
:1004500080BD00BF80B582B000AF786006E07B68E9
:100460005A1C7A601B781846FFF7AAFF7B681B7836
:10047000002BF4D100BF0837BD4680BD80B582B0E7
:1004800000AF0346FB71FB791846FFF799FF00BFE9
:100490000837BD4680BD00BF80B582B000AF786030
:1004A0007B68092B12D97B680E4AA2FB0323DB0869
:1004B0001846FFF7F1FF7A680A4BA3FB0213D9082D
:1004C0000B469B000B445B00D31A7B607B68DBB25E
:1004D0003033DBB21846FFF7D1FF00BF0837BD4607
:1004E00080BD00BFCDCCCCCC80B582B000AF034680
:1004F0003960FB713B68DAB2FB791344DBB2184612
:10050000FFF730FF00BF0837BD4680BD80B400AFA5
:100510001F4A1F4B1B6843F0004313601C4A1C4BCF
:100520001B6843F4006313601A4A1A4B1B6823F4D8
:10053000F86303F5A8631360154A154B1B6823F095
:1005400070031360124A124B1B6823F400531360AC
:100550000F4A0F4B1B6843F0804313600C4A0C4B4F
:100560001B6823F0FE5303F18073136000BF0A4B36
:100570001B6803F04003002BF9D0054A044B1B68AD
:1005800023F40063136000BFBD465DF8047B704731
:1005900070E00F4060E00F4050E00F4080B400AFCB
:1005A000054B00221A60044B05221A6000BFBD46AD
:1005B0005DF8047B704700BF10E000E080B483B0BA
:1005C00000AF7860094A7B68013B1360084B00224A
:1005D0001A6000BF074B1B6803F48033002BF9D06F
:1005E00000BF0C37BD465DF8047B704714E000E0A7
:1005F00018E000E010E000E080B584B000AF786063
:100600000023FB6005E05020FFF7D8FFFB680133B3
:10061000FB60FA687B689A42F5D300BF1037BD468D
:1006200080BD00BF80B584B000AF78600023FB6060
:1006300005E00748FFF7C2FFFB680133FB60FA687B
:100640007B689A42F5D300BF1037BD4680BD00BF1E
:100650008038010080B483B000AF0D4B1B687B6015
:100660000C4A0C4B1B6843F0100313600A4B0B4AF7
:100670001A600B4BC0221A600A4B3F221A600A4BC9
:100680003F221A6000BF0C37BD465DF8047B7047FF
:1006900008E60F4008E10F40204502404B434F4C15
:1006A00000440240104502401C45024080B594B011
:1006B00000AFFFF7CFFF0023FB640023BB640023E0
:1006C0007B6400233B64FFF721FFFFF767FFFFF721
:1006D0009FFE0023FB640023BB6400237B64002394
:1006E0003B640D218020FFF7FFFEB74B1B681846C7
:1006F000FFF7B0FE00218020FFF7F6FEB34B1B682A
:100700001846FFF7A7FE0021C020FFF7EDFEB04B13
:100710001B681846FFF79EFEAE4B1B6803F00103F3
:10072000BB63AC4B1B6803F002037B63A94B1B68E4
:1007300003F004033B63A74B1B6803F00803FB6251
:10074000A44B1B6803F01003BB62A24B1B6803F0B1
:1007500020037B62BB6B002B07D1FB6C0133FB6476
:10076000FB6C0A2B01D10023FB643B6B002B21D1D6
:100770000D218020FFF7B8FE974B1B681846FFF746
:1007800069FE40F21310FFF74DFF924B1B6803F018
:1007900004033B633B6B002B0CD140F6A520FFF715
:1007A00041FF8C4B1B6803F004033B633B6B002B46
:1007B00000D18EE77B6B002B07D1BB6C0133BB6490
:1007C000BB6C0A2B01D10023BB64FB6A002B07D151
:1007D0007B6C01337B647B6C0A2B01D100237B642F
:1007E000BB6A002B07D13B6C01333B643B6C0A2B8B
:1007F00001D100233B647B6A002B40F07A81FA6CC4
:1008000013469B0013445B001A46744BA3FB022360
:100810001B093B623B6A5B001A46FB6C9B1AFB643C
:100820003B6A002B1BDD0021C020FFF75DFE3B6A09
:100830001846FFF731FE0221C020FFF755FE684B36
:100840001B681846FFF706FE0B218020FFF74CFEC1
:10085000F86CFFF721FE40F6B830FFF7E3FEFB6CC3
:10086000FB61FB69FA6CD31AFB64FB69002B1BDD8F
:100870000021C020FFF738FEFB691846FFF70CFE89
:100880000221C020FFF730FE564B1B681846FFF7C9
:10089000E1FD0B218020FFF727FEF86CFFF7FCFD40
:1008A00040F6B830FFF7BEFEBB6C4C4AA2FB0323F8
:1008B0009B08BB61BA6913469B079B1A9B009B1A56
:1008C0001A46BB6C1344BB64BB69002B1BDD0021C3
:1008D000C020FFF709FEBB691846FFF7DDFD0221C6
:1008E000C020FFF701FE404B1B681846FFF7B2FD22
:1008F0000C218020FFF7F8FDB86CFFF7CDFD40F626
:10090000B830FFF78FFEBB6C7B610023BB647B6953
:10091000002B1BDD0021C020FFF7E6FD7B69184698
:10092000FFF7BAFD0221C020FFF7DEFD2F4B1B6849
:100930001846FFF78FFD0C218020FFF7D5FDB86C1E
:10094000FFF7AAFD40F6B830FFF76CFE7B6C234A38
:10095000A2FB03239B083B613A6913469B079B1A42
:100960009B009B1A1A467B6C13447B643B69002BEB
:100970001BDD0021C020FFF7B7FD3B691846FFF7DC
:100980008BFD0221C020FFF7AFFD194B1B681846F5
:10099000FFF760FD0E218020FFF7A6FD786CFFF7C2
:1009A0007BFD40F6B830FFF73DFE7B6C012B21D973
:1009B0003B6C042B1ED90123FB637B6C023B7B64E5
:1009C0003B6C053B3B6426E0C80000200C00002087
:1009D00024000020FC430240D0000020CDCCCCCC31
:1009E00034000020480000205C000020700000203F
:1009F000840000207B6C022B0BD93B6C042B08D8A5
:100A00000123FB637B6C033B7B643B6C05333B64E2
:100A100001E00023FB63FB6B002B22DD0021C020E3
:100A2000FFF762FDFB6B1846FFF736FD0221C02081
:100A3000FFF75AFD3F4B1B681846FFF70BFD0E21D1
:100A40008020FFF751FD786CFFF726FD0F218020F5
:100A5000FFF74AFD386CFFF71FFD40F6B830FFF78F
:100A6000E1FD7B6CFB60FB687A6CD31A7B64FB68EE
:100A7000002B1BDD0021C020FFF736FDFB68184668
:100A8000FFF70AFD0221C020FFF72EFD2A4B1B684D
:100A90001846FFF7DFFC0E218020FFF725FD786C5C
:100AA000FFF7FAFC40F6B830FFF7BCFD3B6CBB60CB
:100AB00000233B64BB68002B1BDD0021C020FFF737
:100AC00013FDBB681846FFF7E7FC0221C020FFF7C3
:100AD0000BFD1A4B1B681846FFF7BCFC0F2180204A
:100AE000FFF702FD386CFFF7D7FC40F6B830FFF790
:100AF00099FD0B218020FFF7F7FCF86CFFF7CCFC89
:100B00000C218020FFF7F0FCB86CFFF7C5FC0E212C
:100B10008020FFF7E9FC786CFFF7BEFC0F218020F6
:100B2000FFF7E2FC386CFFF7B7FC6420FFF77AFDB3
:100B3000F2E500BF98000020AC000020C0000020BB
:100B400080B582B000AF134B7B60134B3B6007E076
:100B50003B681A1D3A607A68111D796012681A6044
:100B60003B680E4A9342F3D30E480F494FF0000200
:100B70008842B8BF40F8042BFADB094A084B1B68CF
:100B800043F470031360FFF791FD00BF0837BD46C3
:100B900080BD00BFDC0B000000000020D40000205E
:100BA00088ED00E0D4000020D401002080B400AF24
:100BB000FEE700BF80B400AFFEE700BF80B400AF27
:100BC000FEE700BFF8B500BFF8BC08BC9E46704702
:0C0BD000F8B500BFF8BC08BC9E4670479A
:100BDC002D2D2D2D2D2D2D2D2D2D2D0000000020FA
:100BEC002D2D2D2D2D2D2D2D2D2D2D2D2D2D2D2D29
:100BFC0000000000100000205969726D696C696B6F
:100C0C0000000000280000204F6E6C756B2D2D2D00
:100C1C002D2D2D2D2D2D0000380000204265736CDC
:100C2C00696B2D2D2D2D2D2D2D2D00004C00002010
:100C3C004269726C696B2D2D2D2D2D2D2D2D0000E3
:100C4C0060000020596172696D6C696B2D2D2D2D22
:100C5C002D2D00007400002043657972656B6C6962
:100C6C006B2D2D2D2D2D0000880000204D657465F9
:100C7C006C696B2D2D2D2D2D2D2D00009C00002031
:100C8C004B757275736C756B2D2D2D2D2D2D0000E4
:100C9C00B000002020000000C40000202E00000046
:040CAC00CC00002058
:00000001FF
